:1000000071C000008EC000008CC000008AC00000DB
:1000100088C0000086C0000084C0000082C00000CC
:1000200080C000008FC0000029C2000080C2000014
:1000300078C0000076C0000074C0000072C00000EC
:1000400070C0000004C100006CC000006AC0000065
:1000500068C0000066C0000064C0000062C000000C
:1000600060C000005EC000005CC000005AC000001C
:1000700058C0000056C0000054C0000052C000002C
:100080000FC100004EC000004CC000004AC000007C
:1000900048C0000046C0000044C0000042C000004C
:1000A00040C000003EC000003CC000003AC000005C
:1000B00038C0000036C0000034C0000032C000006C
:1000C00030C000002EC000002CC000002AC000007C
:1000D00028C0000026C0000024C0000022C000008C
:1000E00020C0000011241FBECFEFD1E2DEBFCDBF84
:1000F00000E00CBF12E0A0E0B2E0EAE7FCE000E0C4
:100100000BBF02C007900D92A430B107D9F722E0CF
:10011000A4E0B2E001C01D92A832B207E1F781D39A
:10012000AAC56ECF84B184B985B185B9E8E6F0E09F
:10013000808181608083D89AEBE6F0E080818360E3
:10014000808308951F920F920FB60F9211248F9300
:100150009F9383B1837049F410922302109222027C
:1001600010920502109204021AC0813059F41092C4
:1001700023021092220281E090E090930502809386
:10018000040219C0823059F481E090E09093230278
:100190008093220210920502109204020CC0833058
:1001A00051F481E090E09093230280932202909397
:1001B0000502809304029F918F910F900FBE0F90C4
:1001C0001F90189580912202909123028130910511
:1001D00089F48091040290910502019769F4BDD0E1
:1001E0002FEF83ED90E3215080409040E1F700C075
:1001F00000000895892B81F0B0D02FEF83ED90E3BC
:10020000215080409040E1F700C0000061E070E0C4
:100210008FE090E0D8C0089580910402909105028B
:10022000892B81F09AD02FEF83ED90E3215080400D
:100230009040E1F700C0000060E070E08FE090E0E7
:10024000C2C0089587D082E390E09CC008951F92B9
:100250000F920FB60F9211240BB60F928F939F93AC
:10026000EF93FF938091060290910702019739F472
:10027000EBE0F1E0908188E18927808306C0EBE024
:10028000F1E0908188E089278083FF91EF919F9131
:100290008F910F900BBE0F900FBE0F901F9018956F
:1002A0001F920F920FB60F9211240BB60F928F93DD
:1002B0009F93EF93FF93809106029091070201971D
:1002C00031F0EBE0F1E0908180E189278083FF91BC
:1002D000EF919F918F910F900BBE0F900FBE0F90DB
:1002E0001F90189560EC609380004AE050E05093B6
:1002F00089004093880024E630E030938700209303
:10030000860092E090936F00109285001092840016
:1003100084E1809381006093900050939900409312
:10032000980030939700209396009093710010925C
:10033000950010929400809391008FEF80930A01B2
:1003400087B981E090E0909307028093060285E0F0
:1003500088B9089585E088B908958CE291E090937A
:10036000890080938800109285001092840010927A
:100370000B01909399008093980010929500109231
:1003800094000895CF93DF9321E030E0309307028B
:1003900020930602833291054CF0C4E6D0E0C81BDE
:1003A000D90BC436D10521F4D8DF02C0C3E2D0E0B6
:1003B000D0938900C0938800D0939900C09398008F
:1003C000DF91CF9108958F929F92AF92BF92CF927B
:1003D000DF92EF92FF920F931F93CF93DF934B0126
:1003E000BC01990F880B990B30D320E030E040E935
:1003F00050E490D2F7D26B0177231CF42FEFC21A8E
:10040000D20AD594C7948ED05C018CD08C0185D053
:100410007C0183D0EC018A94892819F483E088B99F
:1004200002C08CE088B982E390E0ACDFEC0CFD1CEC
:10043000CA0CDB1C10C071D0EC0174D08C01CE153D
:10044000DF051CF088B1897F88B90C151D051CF0EB
:1004500088B1867F88B9CE15DF051CF40C151D0503
:1004600054F3DF91CF911F910F91FF90EF90DF90A8
:10047000CF90BF90AF909F908F9008951F920F9252
:100480000FB60F9211242F933F938F939F938091D8
:10049000030190910802982780FF0CC090FF0AC0CA
:1004A00020912402309125022F5F3F4F3093250287
:1004B0002093240281FF0CC091FF0AC020912602E4
:1004C000309127022F5F3F4F30932702209326025F
:1004D000809308029F918F913F912F910F900FBEB3
:1004E0000F901F90189583E085BF109225021092FF
:1004F00024021092270210922602109204011092F8
:100500000501E8E6F0E0808187608083D99AECE617
:10051000F0E080818660808308958091260290912A
:1005200027020895809124029091250208951F9238
:100530000F920FB60F9211240BB60F922F933F9389
:100540004F935F936F937F938F939F93AF93BF93DB
:10055000CF93EF93FF93C0910601809115028C27F2
:10056000813009F0A5C0809118029091190201977D
:1005700009F08BC01092A1008091A4009091A50079
:1005800090931D0280931C0260911C0270911D02C9
:10059000072E000C880B990B58D220E030E044E184
:1005A00053E4B8D120E030E040E651E4B3D16093A9
:1005B0001E0270931F02809320029093210260918B
:1005C0001E0270911F0280912002909121022DEC59
:1005D0003CEC4CE85FE3C5D260931E0270931F02AF
:1005E000809320029093210260911E0270911F025D
:1005F000809120029091210220910D0230910E02F3
:1006000040910F025091100221D160930D0270931E
:100610000E0280930F02909310028091130290912A
:100620001402019690931402809313028091130296
:1006300090911402059709F560910D0270910E02D8
:1006400080910F029091100220E030E040EA50E4E7
:1006500061D160931E0270931F02809320029093D9
:100660002102109214021092130210920D021092A5
:100670000E0210920F02109210021092A50010921A
:10068000A400109219021092180280911802909101
:100690001902892B09F096C0E1EAF0E080818160BF
:1006A000808381E090E090931902809318028AC0C1
:1006B000823009F087C0809116029091170201974D
:1006C00009F06FC01092A1008091A4009091A50044
:1006D00090931B0280931A0280911A0290911B0240
:1006E00068E178E0A1D2072E000C880B990BADD100
:1006F00060930002709301028093020290930302C0
:1007000060910002709101028091020290910302B7
:100710002091090230910A0240910B0250910C0283
:1007200095D06093090270930A0280930B02909314
:100730000C02809111029091120201969093120284
:10074000809311028091110290911202059709F590
:100750006091090270910A0280910B0290910C0243
:1007600020E030E040EA50E4D5D06093000270937E
:1007700001028093020290930302109212021092DF
:1007800011021092090210920A0210920B021092AA
:100790000C021092A5001092A40010921702109261
:1007A00016028091160290911702892B59F4E1EA02
:1007B000F0E080818160808381E090E09093170277
:1007C00080931602C0931502FF91EF91CF91BF91D4
:1007D000AF919F918F917F916F915F914F913F91D9
:1007E0002F910F900BBE0F900FBE0F901F9018957A
:1007F00080E884B915B81092640010920701109235
:10080000080193E095BFE8E6F0E080818460808392
:10081000EDE6F0E08081836080831092A00090BBC1
:10082000089578942FEF8FE493EC2150804090400E
:10083000E1F700C00000DCDF55DD55DE73DC8DDD47
:1008400083E690E09FDDBEDCFECF5058BB27AA2791
:100850000ED04DC13ED130F043D120F031F49F3F56
:1008600011F41EF433C10EF4E095E7FB29C1E92F22
:100870004FD180F3BA17620773078407950718F002
:1008800071F49EF567C10EF4E0950B2EBA2FA02DE2
:100890000B01B90190010C01CA01A0011124FF272D
:1008A000591B99F0593F50F4503E68F11A16F04028
:1008B000A22F232F342F4427585FF3CF4695379527
:1008C0002795A795F0405395C9F77EF41F16BA0BEC
:1008D000620B730B840BBAF09150A1F0FF0FBB1F9A
:1008E000661F771F881FC2F70EC0BA0F621F731FE3
:1008F000841F48F4879577956795B795F7959E3F40
:1009000008F0B3CF9395880F08F09927EE0F9795CD
:10091000879508950CD0EBC0E3D040F0DAD030F0EA
:1009200021F45F3F19F0CCC0511115C1CFC0F0D0F8
:1009300098F39923C9F35523B1F3951B550BBB27A6
:10094000AA2762177307840738F09F5F5F4F220F53
:10095000331F441FAA1FA9F333D00E2E3AF0E0E84C
:1009600030D091505040E695001CCAF729D0FE2F98
:1009700027D0660F771F881FBB1F2617370748072A
:10098000AB07B0E809F0BB0B802DBF01FF279358E0
:100990005F4F2AF09E3F510568F092C0DCC05F3F78
:1009A000ECF3983EDCF3869577956795B795F795C8
:1009B0009F5FC9F7880F911D9695879597F90895C0
:1009C000E1E0660F771F881FBB1F6217730784075C
:1009D000BA0720F0621B730B840BBA0BEE1F88F76B
:1009E000E095089504D06894B111B5C0089598D0E9
:1009F00088F09F5790F0B92F9927B751A0F0D1F008
:100A0000660F771F881F991F1AF0BA95C9F712C091
:100A1000B13081F09FD0B1E008959CC0672F782F4E
:100A20008827B85F39F0B93FCCF3869577956795FD
:100A3000B395D9F73EF490958095709561957F4F69
:100A40008F4F9F4F0895E89409C097FB3EF490950F
:100A50008095709561957F4F8F4F9F4F9923A9F097
:100A6000F92F96E9BB279395F69587957795679526
:100A7000B795F111F8CFFAF4BB0F11F460FF1BC06A
:100A80006F5F7F4F8F4F9F4F16C0882311F096E9FD
:100A900011C0772321F09EE8872F762F05C06623AB
:100AA00071F096E8862F70E060E02AF09A95660F64
:100AB000771F881FDAF7880F9695879597F908951D
:100AC00097F99F6780E870E060E008959FEF80EC01
:100AD000089500240A9416161706180609060895A4
:100AE00000240A9412161306140605060895092E0A
:100AF0000394000C11F4882352F0BB0F40F4BF2B79
:100B000011F460FF04C06F5F7F4F8F4F9F4F0895B8
:100B100057FD9058440F551F59F05F3F71F04795AE
:100B2000880F97FB991F61F09F3F79F08795089593
:100B3000121613061406551FF2CF4695F1DF08C0B2
:100B4000161617061806991FF1CF869571056105CF
:100B500008940895E894BB2766277727CB0197F977
:100B600008950BD0C4CFB5DF28F0BADF18F0952375
:100B700009F0A6CFABCF1124EECFCADFA0F3959F2B
:100B8000D1F3950F50E0551F629FF001729FBB2774
:100B9000F00DB11D639FAA27F00DB11DAA1F649F20
:100BA0006627B00DA11D661F829F2227B00DA11DD3
:100BB000621F739FB00DA11D621F839FA00D611D59
:100BC000221F749F3327A00D611D231F849F600D7A
:100BD000211D822F762F6A2F11249F5750408AF0B3
:100BE000E1F088234AF0EE0FFF1FBB1F661F771F3F
:100BF000881F91505040A9F79E3F510570F060CF7B
:100C0000AACF5F3FECF3983EDCF386957795679526
:100C1000B795F795E7959F5FC1F7FE2B880F911D5C
:100C20009695879597F9089597FB072E16F40094EB
:100C300006D077FD08D00BD007FC05D03EF4909588
:100C400081959F4F0895709561957F4F0895AA1BD8
:100C5000BB1B51E107C0AA1FBB1FA617B70710F0A7
:100C6000A61BB70B881F991F5A95A9F780959095D9
:0A0C7000BC01CD010895F894FFCFF8
:040C7A000000104125
:00000001FF
